{
  "contractName": "MahdiToken",
  "abi": [
    {
      "constant": true,
      "inputs": [],
      "name": "totalSupply",
      "outputs": [
        {
          "name": "",
          "type": "uint256"
        }
      ],
      "payable": false,
      "stateMutability": "view",
      "type": "function"
    },
    {
      "inputs": [],
      "payable": false,
      "stateMutability": "nonpayable",
      "type": "constructor"
    }
  ],
  "bytecode": "0x608060405234801561001057600080fd5b50620f4240600081905550609e806100296000396000f300608060405260043610603f576000357c0100000000000000000000000000000000000000000000000000000000900463ffffffff16806318160ddd146044575b600080fd5b348015604f57600080fd5b506056606c565b6040518082815260200191505060405180910390f35b600054815600a165627a7a72305820306085663e56be85a3c682694031351f26791d5e777b19cebdec1108f62fbed80029",
  "source": "// version\npragma solidity ^0.4.2;\n\n// declare contract\ncontract MahdiToken {\n\n\t//test to ensure it was created properly\n\t//set the number of tokens and read them back\n\t//constuctor\n\t\n\tuint256 public totalSupply; //declare the state variable, public variable so solidity\n\t// provides getter variable\n\n\tfunction MahdiToken() public {\n\n\t\t// state variable, writes to blockchain, \n\t\t// name comes from rc20 standard and is a required function\n\t\ttotalSupply = 1000000;\n\n\t}\n}",
  "sourcePath": "/Users/mahdi/Desktop/MahdiToken/MahdiToken_sale/contracts/MahdiToken.sol",
  "compiler": {
    "name": "solc",
    "version": "0.4.24+commit.e67f0147.Emscripten.clang"
  },
  "schemaVersion": "2.0.1",
  "updatedAt": "2018-07-30T05:21:03.896Z"
}